:1000000000560020614300007F5902004D4300006C
:100010004D4300004D4300004D4300000000000030
:100020000000000000000000000000000D4500007E
:100030004D43000000000000A54400004D430000B7
:100040004D470000819101004D4700004D470000E1
:100050004D4700004D4700004D4700004D47000050
:100060004D4700004D4700004D4700004D47000040
:100070004D4700004D4700004D4700004D47000030
:100080004D4700004D4700004D4700004D47000020
:100090004D4700004D4700004D4700004D47000010
:1000A0004D4700004D4700004D4700004D47000000
:1000B0004D4700004D4700004D4700004D470000F0
:1000C0004D4700004D4700004D4700004D470000E0
:0C00D0004D4700004D4700004D47000068
:0400DC00FFFFFFFF24
:1000E00053B94AB9002908BF00281CBF4FF0FF319F
:1000F0004FF0FF3000F00CB8ADF1080C6DE904CE04
:1001000000F008F8DDF804E0DDE9022304B07047F0
:10011000704700BF2DE9F04786468C460846089E8A
:10012000154674461946002B40F0C2808542B2FA4B
:1001300082F245D94AB1C2F1200300FA02FC2EFA3C
:1001400003F3954043EA0C0C94404FEA154EA8B2D5
:10015000BCFBFEF8230C0EFB18CC08FB00F943EAAD
:100160000C43994528D9EB1808F1FF3704D299457B
:1001700002D9A8F102072B44A3EB0903A4B2B3FBF5
:10018000FEFC0EFB1C330CFB00F044EA0344A042CF
:1001900014D92C190CF1FF3304D2A04202D9ACF1CE
:1001A00002032C44241A43EA07401EB1D440002322
:1001B00034607360BDE8F0874746DDE76346F1E7EA
:1001C00092BB431B01214FEA154EAFB2B3FBFEFCBD
:1001D000200C0EFB1C330CFB07F840EA0343984548
:1001E00062D9EB180CF1FF3004D2984502D9ACF17A
:1001F00002002B44A3EB0803A4B2B3FBFEFC0EFBEE
:100200001C330CFB07F744EA0344A7424ED92C19D0
:100210000CF1FF3304D2A74202D9ACF102032C4403
:10022000E41B43EA0040C0E7C2F1200320FA03F1D7
:10023000954090402EFA03F303434FEA154EAFB2B8
:10024000B1FBFEFC0EFB1C10190C0CFB07F841EA7D
:100250000041884504FA02F422D969180CF1FF30F4
:1002600004D2884502D9ACF102002944A1EB08016F
:100270009BB2B1FBFEFC0EFB1C110CFB07F743EA23
:1002800001439F420ED9EB180CF1FF3104D29F427B
:1002900002D9ACF102012B44DB1B41EA004192E799
:1002A0006046E3E76146F7E76046A3E76346B7E7E2
:1002B000834206D916B9002108467BE7C6E900E06B
:1002C000F9E7B3FA83F78FB9834201D3724508D8AF
:1002D000BEEB020460EB030301209C461EB9002123
:1002E00068E73846FAE7C6E9004CF8E7C7F1200CA2
:1002F000BB4022FA0CF41C432EFA0CF120FA0CF34A
:10030000B84001434FEA14490EFA07F5B3FBF9F878
:100310001FFA84FE09FB18300B0C08FB0EFA43EAA7
:1003200000439A4502FA07F240D9E31808F1FF307A
:1003300004D29A4502D9A8F102002344A3EB0A0390
:1003400089B2B3FBF9F809FB183308FB0EFE41EA4A
:1003500003418E452CD9611808F1FF3304D28E4534
:1003600002D9A8F10203214443EA0040A0FB02980D
:10037000A1EB0E014145CE46434602D306D14D4581
:1003800004D2B9EB020E68EB04030138002EA6D0AC
:10039000B5EB0E0261EB030101FA0CFC22FA07F344
:1003A0004CEA0303F940C6E9003198E74046C5E747
:1003B0004346D9E710F8012B11F8013B012A28BF69
:1003C0009A42F7D0D01A7047034613F8012B002A3F
:1003D000FBD1181A0138704710B5082140F60140CA
:1003E00005F0FCFDD8B1044608210C301CF0A0F843
:1003F00002460F4B93F8D83013F0010F0BD10D4884
:100400004FF0005125F0BFFC0022214640F601408C
:1004100005F034FE10BD04A1D1E90001F2E76FF050
:100420006800F7E7AFF300809088000200800020AA
:1004300000000020108800022DE9F843D0E90C35B7
:10044000D0F82C805C193034A0450F46164619D8D8
:100450001D4DA3FB05011AA3D3E90023FFF740FEBE
:100460000346A4EB0800A0FB050123F07F4414A37E
:10047000D3E90023FFF734FE20F07F403C6030607A
:10048000BDE8F883DFF840900DA3D3E90023A8FB73
:100490000901FFF725FE044605F1300008A3D3E962
:1004A0000023A0FB0901FFF71BFE24F07F4420F08E
:1004B0007F403C603060BDE8F88300BFAFF3008050
:1004C0008D49FD1A0700000000CA9A3B0000000099
:1004D000002800F046812DE9F04FC94C94F86A20BD
:1004E00012F001058DB040F0788194F82500FF23CB
:1004F00000F0030084F8263018F0C6F994F86A007A
:10050000420727D494F8292094F8353004EB82026E
:1005100004EB8303D66AD3F8388086B1B8483146F5
:1005200012F0C4F833785B0605D506210DF0B8FB50
:10053000002800F05481B248414612F0B7F83378F1
:1005400013F00E0F40F09E80236A93B10C200DB083
:10055000BDE8F08F2A4604F16B01C0F3C00018F02B
:1005600011FBFF2884F82600CCD0284618F0A6F905
:10057000C8E70FF007FC8146002800F054810FF017
:100580000DFC8246002800F04B8112F075FB0546F9
:10059000002800F04A81D0F888004FF6FF732B85C1
:1005A00005F11C0B002800F0208105F17C0205F10B
:1005B00078010DF081FBB5F8763023F4EF6323F07A
:1005C000070343F4887343F00103A5F8763095F8E8
:1005D000393003F03F0363F07F0385F8393095F835
:1005E0008E3023F0070385F88E3095F83C3023F0E9
:1005F0000703002785F83C304FF4C023C5F8883145
:100600002846C5E91277C5F88870A5F88C706F8602
:10061000C5F82E7085F83B702F65A5F88E71A5F88A
:10062000847114F039FC85F85071C5F8549112F0BA
:10063000ABFD95F8943160F3020385F8943112F024
:10064000A9FD95F8943160F3C50385F8943195F8C8
:10065000803167F3410385F880310121284613F08A
:100660009DF905F1D40014F0DFF9C4E9189AC4F833
:1006700020B0C5E905772F70ED6119F0EDFA00287B
:1006800040F0AF8094F824300121C3F342030DF110
:100690002B008DF82B300DF0ABFC0246002862D009
:1006A00098F80110304611F0D1FD31235549A3606F
:1006B000554BB4F86870A0FB01010025C01841F14A
:1006C00007014DA3D3E90023C4E9055525706560F2
:1006D000E560FFF705FD20610EF08EFE00F10908D0
:1006E0003FB9357805F00F05A5F10105B5FA85F597
:1006F0006D0994F82400236965F3000010F00105EA
:1007000084F8240036D0414A099200201060022566
:100710003F4A404F04930BAE019305920321CDE96C
:100720000200069443460090089607972A460B95C8
:100730000EF064FD31460FF0E5FBA0B93649059196
:100740004AF2D8330093CDE90300CDE901000797C1
:10075000089606944346012203210B950EF032FDC4
:100760002EE011F0CBBC236A002B3FF4EFAE11F06A
:1007700089FCEBE6254A2948049303F247130694C3
:10078000029591211360A7FB000301FB0731214B68
:1007900007931F4B05934FF6FF73099202270393AC
:1007A0000BAE15A3D3E900230B970896FFF798FC2F
:1007B0004346CDE900503A46284603210EF01EFD7F
:1007C00031460FF09FFB0028CDD194F86A3001200C
:1007D000034384F86A3018F039F80020B7E6122095
:1007E000B5E611F04FFC0320B1E605F18000C5F835
:1007F0008800DAE6AFF300808D49FD1A070000009B
:10080000FC22002000CA9A3B8C49FD1AF0220020ED
:10081000C922010045F50000311E0100002AE784CD
:1008200048460FF0B5FA072091E650460FF0BCFAA3
:1008300048460FF0ADFAF6E770B590F824308AB06C
:10084000C3F342030D46044601210DF12300164671
:100850008DF823300DF0CCFB71780246284611F05C
:10086000F5FC1F491F4AA0FB0131981841F107010F
:1008700019A3D3E90023FFF733FC23699842054607
:1008800021D21B1A00220192174A0293174BA21A77
:10089000A3FB02320221920900230A4409AE099106
:1008A00013490591CDE903330321D2B20696009393
:1008B00018460EF003FD31460FF024FB38B92561D0
:1008C00000200AB070BDFBD9C21A0023DBE70C2060
:1008D0000AB070BDAFF300808D49FD1A070000001B
:1008E00000CA9A3B8C49FD1AFC22002009CB3D8DA1
:1008F00045F50000000000002DE9F04F05468BB0E3
:100900008B46012002219A4614461BF0FDF9002275
:100910000221814601200DF01FFA37494FF4D072B1
:1009200028460DF0A9F9C61CF6B2344B00953246A4
:10093000012100200EF0DAFC10F0FD0F0BD0304941
:10094000304840F6320223F07AF9404080F31188B3
:100950004FF0030002DF2C4BA4FB0348204624A3E6
:10096000D3E900234146FFF7BBFB089506952B69A9
:100970000493264B20F07F47A7FB0331E01A244B5A
:1009800007934FF00702234B059302FB07114FF625
:10099000FE7368EB010103934FF47A720023FFF7B3
:1009A0009FFBCDF800B0CDE90170534632460121DE
:1009B00000200EF007FC10F0FD0F0BD0104911487D
:1009C00040F6470223F03BF9404080F311884FF096
:1009D000030002DFB9F1000F02D10BB0BDE8F08FC8
:1009E0000122022110460BB0BDE8F04F0DF0B4B962
:1009F0008D49FD1A07000000A81100202D2C0100D0
:100A0000BCEF0200F0B5020000CA9A3B8D49FD1A06
:100A1000E12B0100C97C01002DE9F043C469228D5E
:100A20004FF6FF739A428DB000F08780054620464E
:100A300014F0ACFC95F82830012B00F00E81022B4D
:100A400000F00181002B00F0E08094F85071002F3D
:100A500040F0FC80E68DB4F83080002E70D1AA8C76
:100A600008F101060023CDE90A33B6B2002A6FD09F
:100A700094F93930002BC0F247810023A4F88A3161
:100A800095F82630D90740F1EE800023A4F88E3186
:100A90000DF127023146204614F03AFA743000F086
:100AA0004581B4F888312BB1B34240F20C819B1BD5
:100AB000A4F88831B4F884312BB1B34240F2FA8003
:100AC0009B1BA4F88431258E17B9A84500F0E98056
:100AD0000135ADB294F8D13013F0010659D1DDE9FA
:100AE0000A130A46002B40F0EC80002900F0DB805E
:100AF0001E461846228DE4690694CDE90357033259
:100B0000A74D0290CDE90016D2B201210020059533
:100B10000EF0D4FB10F0FD0F0FD00FF01DFA844241
:100B20000BD0A049A0484FF4A36223F088F84040BE
:100B300080F311884FF0030002DF0DB0BDE8F083B1
:100B4000AA8C46440023CDE90A33B6B2002A8FD1DD
:100B500095F82630DA0798D4B4F88A31002B00F0E3
:100B60008280B34240F2FA809B1BA4F88A31B4F829
:100B70008E31002B8CD09E4280F0DE809B1B9BB27E
:100B80000022062BA4F88E31228600F2AC800127C9
:100B90007EE794F939206FF30003002A84F8D130FE
:100BA00077DB94F87600C0F3C00100F0070018F07E
:100BB000CBFEB4F86E20B4F86C30134403F2D513B6
:100BC00003447A4A7A480721E3FB0021104672A3C6
:100BD000D3E90023FFF784FADDE90A1320F07F420E
:100BE00020692261904235BF161A801A0020002623
:100BF0000A46002B7FF47EAF56EA010C7FF47AAFF1
:100C0000002850D019461E4674E794F88E3003F041
:100C10001803182B7FF419AFA18DB4F886218B1D12
:100C20009A42C4BF931F5B1AB4F88211CCBF9BB227
:100C30001346994200F08C80A4F88231A4F88431E4
:100C4000A4F8882101E73D2784F8507139462046F1
:100C50000DB0BDE8F04312F073BB0023A4F8883157
:100C6000A4F88431F1E6B4F88E31002B83D1628D83
:100C7000B4F88C3140F2E24101FB02F242F2107111
:100C800001FB0323013BB3FBF2F39BB2A4F88E31CB
:100C90006FE794F87700012100F0070018F056FE86
:100CA00087E73D4616E7002D4BD00026114630461B
:100CB00033461FE70023A4F88431204614F0C4F91A
:100CC00001E7304616E70FF0B5F8014600283BD0A3
:100CD0000023A4F88831238DC3801B23037100688F
:100CE0000FF072F8E6E694F939309342BFF6D0AED1
:100CF000B8F1000F7FF44BAFD4F878315A08DB0716
:100D000043D4C4F87821C3E628460AAA0BA904F103
:100D1000D409FFF791FB484613F0C8FE18B34846C4
:100D200013F0C4FE18B300232386A6E69DF827100F
:100D3000204612F005FB00E70821204612F000FBD8
:100D4000FBE6002FB1D1F8E60123A4F88831B1E623
:100D5000B4F8881100297FF478AE6FE73E21204671
:100D600012F0EEFAE9E6FF2012F0AAFAD7E70246FF
:100D7000D4E91E010CF0B8FF0028D4D194F83C301F
:100D8000580744BFA38D238677E642F00042C4F89B
:100D90007821FCE6AFF300808D49FD1A07000000C2
:100DA000A52B0100BCEF0200F0B502008C49FD1A32
:100DB00000CA9A3B000000002DE9F04F87B0CDE952
:100DC0000423BDF8442003780292BDF84820BDF802
:100DD0004080BDF84C50468EB0F82E90B0F814B15B
:100DE000019104460392002B00F08D80013EB6B2C3
:100DF000A368D4F80C71721B92B2002B009209DA2E
:100E0000E168626823F0004391422CBF7F18BF184D
:100E1000A360FF1A009A638D13FB02F39BB2B3FB2E
:100E2000F8F218FB02F080B283421FFA82FA59D21C
:100E3000C01A40F2E2425E4902FB00F0A0FB010151
:100E400059A3D3E90023FFF74BF920F07F40074473
:100E5000D94494F839304D44AD1B554440F2E24634
:100E6000DB09E58506FB08F551D15249524840F6A9
:100E7000BD0222F0E4FE404080F311884FF00300F1
:100E800002DF0026A946029BA385039BA4F88C31B0
:100E900029462046A4F82A8014F072F8474BA18D09
:100EA0002B44881DB3FBF5F39AB29042A4F8862137
:100EB00002D2521A063A92B2019BA4F8822113B1CF
:100EC0000023A4F88E313B464A4631462046FFF7C0
:100ED00013FD94F8803143F0010384F8803107B0AA
:100EE000BDE8F08F08FB1231314840F2E24389B28D
:100EF00003FB01F1A1FB00012BA3D3E90023FFF7C2
:100F0000EFF83F1AA4E74E445E44B6B270E7226C95
:100F10000099A36CDFF898B002FB1133A36418F0BA
:100F2000EBFE814694F87401C0F3420018F0E6FE2F
:100F3000049B814406FB03F305FB09F9236509F5CE
:100F400074291F4B09F23F29A3FB09394FEA994342
:100F500003FB0AF02364A5EB0309A36C6A080344AE
:100F6000963A934228BF1346C4E911230023C4F8DC
:100F70007C31A0FB0B010CA3D3E90023FFF7B0F8F1
:100F8000104B059A3F1AA3FB0230800A06FB00F0C3
:100F900005A3D3E90023A0FB0B01FFF7A1F820F084
:100FA0007F4670E7AFF300808D49FD1A070000000F
:100FB00000CA9A3BBCEF0200F0B502007FC3C90132
:100FC00083DE1B435917B7D12DE9F04F0D46166844
:100FD0006F7C09681446027FD1F8008095B0834683
:100FE000C2F38012D0F81E008DF83F20FF2FBBF80F
:100FF00022201290ADF84C200DF148094DD199E80E
:1010000003001090ADF844105A46BBF82E1052F869
:101010002EAB9278A2722181DBF82A206260DBF885
:101020003A20A26104F118009BF83E2002710521CC
:101030000CF0DEFF627F00F03F0060F30502627794
:101040009BF83F20C2F30401A177BBF83410E18183
:10105000012802F01F0289B205D91B3202F01F02DB
:101060000B2A00D829BB0021C8F8141094F82020BE
:1010700061F3000284F82020DBF80C400125504683
:1010800059468BF804500EF095FE206825712146D4
:101090000EF09AFE15B0BDE8F08F10AA0DF13F01D9
:1010A000384617F011F99DF83F2002328DF83F20A5
:1010B000AAE72A6800215160BBF836202282E28923
:1010C00040F2E24303FB02F20B92BBF832300D9385
:1010D000304613F069FF9BF83F2096F874115209CF
:1010E00062F3430186F8741118F006FE0C9096F82E
:1010F0007401C0F3420018F001FE0C9A0B991044E1
:1011000001FB00F0BE4A00F5742000F23F20A2FB74
:1011100000204A08800C963A6062A2629BF8312057
:1011200040F2E24303FB02F2A263BBF83820A6F8C8
:101130008C21304613F024FF0B99B24A0A44B2FBCB
:10114000F1F2B149C6F8901190B2A6F88601218A51
:1011500001F1060C604504DDC1F57F41FA3101441F
:1011600088B2A6F882016268C6F878215A4612F859
:101170001C3FC3F34013D2070C9300F11C814FF4C2
:101180008072ABF81C2098F8260017F01DFE0BF1BA
:101190002B02002800F0F280DBF82410CBF82B1093
:1011A000BBF828109180FF2F00F0EC80B9F80420E4
:1011B0001298ABF82920CBF825009DF83F208BF83A
:1011C0001E201098BDF84420CBF81F00ABF8232058
:1011D000E289ABF83220228AABF83420B6F88C21B1
:1011E000ABF8362096F87421C2F342028BF838200F
:1011F000304611F04DFDA081ABF806006F685946EE
:1012000050460EF0D7FDA389FB801C233B710C9B3D
:10121000D7F80090002B40F0BB80DDF830B087F8A5
:101220001CB0394648460EF0CFFD94F85B00B4F888
:101230005090B4F85270012100F0070018F086FBBE
:101240004F4407F2D517DFF8C4910744824670482F
:101250000721E7FB090131230027B360776066A30C
:10126000D3E90023F760FEF73BFF20F07F403061B9
:101270000B9B646A0D991C1BEB6840F2E24202FB77
:10128000013303F2B241A1EB0A0A3A4602210120DE
:101290000CF062FD404611F0C5F90246AAFB0901B7
:1012A000924655A3D3E90023FEF71AFFCDF8048038
:1012B000AB685849009120F07F490AF102023A3B9D
:1012C000D2B238464B4401210EF052F801287ED0AC
:1012D00098F82430DB0766D4304611F0D9FC4B4B2C
:1012E000A4FB03A8074644A3D3E900235046414684
:1012F000FEF7F6FE484BAD68484A079220F07F445F
:10130000A4FB0331BAEB0300454B059340F2D11324
:101310000696089333694FF0000BCDE903B34FF005
:10132000070303FB041168EB01014FF47A720023F9
:10133000FEF7D6FE03373A3DFFB2CDE90140CDF8C6
:1013400000902B463A46012158460DF03BFF10F025
:10135000FD0F0BD0334934484FF4E97222F06FFC93
:10136000404080F311884FF0030002DF0122022188
:1013700010460CF0F1FC15B0BDE8F08FCBF82B0057
:10138000908010E70021CBF82510ABF8291014E766
:10139000637F43F040036377201D16F08DFD4FF00F
:1013A000010BE0833BE7002301220093184611461E
:1013B0000DF09CFF90E71B491B48F82222F03FFCF0
:1013C000404080F311884FF0030002DFD7E60EF0B3
:1013D000C3FD80453FF47CAF1249134840F27922A7
:1013E00022F02DFC404080F311884FF0030002DF13
:1013F0006EE700BFAFF300808D49FD1A07000000C3
:1014000083DE1B437FC3C901404B4C0000CA9A3B9B
:101410008C49FD1A957C01008D49FD1A6D7C0100F7
:10142000C97C0100F8F20200F0B5020000000000E3
:101430002DE9F04F8FB00DF137010446DFF8E8A039
:10144000DFF8E8800DF136000EF038FD9DF83630FB
:101450009DF837B00B930DF0CFFFDAF80060A6FBD4
:1014600008562FA3D3E9002300278146314628469A
:10147000FEF736FECDE90777069420F07F44DAF8D0
:1014800004002B4B0593A0FB080125A3D3E90023FF
:10149000FEF726FE274B20F07F40A4FB03310722F6
:1014A00002FB0411CDE90370E81A66EB01014FF469
:1014B0007A720023FEF714FE0097CDE901404B46F7
:1014C0000B985A4603210DF07DFE10F0FD0404D068
:1014D0006FF08B000FB0BDE8F08F1748174A00235C
:1014E0001EF076FF20B9DAF80C000FB0BDE8F08FDF
:1014F0009DF837209DF836000094234603210DF017
:10150000F5FE10F0FD0F08D00D490E48E42222F040
:1015100096FB0B48E42122F08BFB6FF07300D9E7B8
:101520008D49FD1A07000000302A002000CA9A3BAE
:10153000699001008D49FD1A182A0020447B0B0098
:10154000A8F30200F0B5020038B50F4D04460DF0C7
:1015500053FFA9680DF052FF696803460B48B3FBBF
:10156000F4F4A1FB00011C4405A3D3E90023FEF71A
:10157000B7FD20F07F40844294BF0020012038BD99
:101580008D49FD1A07000000302A002000CA9A3B4E
:1015900008B5064829F0D6F808B1002008BD04486F
:1015A00022F040F94FF0FF30F8E700BFA0B0020092
:1015B00008B5020030B583B00024254600E00134B0
:1015C000022C1FDC00230093019305238DF80030CB
:1015D00004238DF801309DF8043064F304038DF882
:1015E00004300A4B1B5D8DF80530094883681B6881
:1015F0006946984705460028E1D00246214605483D
:1016000022F010F9284603B030BD00BF90B50200AB
:10161000A0B0020020B5020070B582B005461648A1
:1016200083685B6815499847064608B904460DE08B
:101630000146134822F0F6F86FF06206304602B019
:1016400070BD21460F4822F0EDF80134022CF5DC84
:101650000D4B33F914200192002DF2D0064B9868FF
:1016600001AB0A220521008921F0C3FF019A21461E
:10167000064822F0D7F8E8E7A0B0020020020020D8
:1016800050B502007CB502000816002068B50200C3
:1016900008B5194829F056F8A8B1174829F052F8AA
:1016A000B8B1154829F04EF8C8B1134829F04AF8E6
:1016B000D8B1114829F046F850B90F4B19680F48B6
:1016C00022F0B0F804E00C4B19680C4822F0AAF89C
:1016D00008BD094B1968094822F0A4F8F8E7064B41
:1016E0001968064822F09EF8F2E7034B1968034890
:1016F00022F098F8ECE700BF50B0020094B5020069
:1017000070B58368456806699C69002C5ED002F458
:10171000C003B3F5C00F1DD043B302F0E863B3F1CB
:10172000C86F2FD002F0C863B3F5800F36D02D6894
:1017300001238B401D423DD012F4000F04D03568C8
:101740002B4201D082F0C06202F0C06302F0B0729E
:10175000A04770BD1F4C40F26F3221461E4822F058
:101760006EFA40F26F31204622F062FA194C40F2D4
:1017700073322146184822F062FA40F27331204653
:1017800022F056FA134C40F276322146124822F0EB
:1017900056FA40F27631204622F04AFA0D4C40F2D9
:1017A0007D3221460C4822F04AFA40F27D31204633
:1017B00022F03EFA074C40F287322146064822F0DA
:1017C0003EFA40F28731204622F032FA6FF057009D
:1017D000BFE700BFBCB50200F0B50200F8B58668EF
:1017E0004768046912F0FC6F33D1134602F03002EF
:1017F000302A3AD0434A1A40434DAA4241D003F01E
:101800000602042A49D013F4402202D013F4003F08
:101810004FD0B2F5402F58D013F4801F05D022B11D
:1018200013F0010F01D083F4402323F480123D68AC
:101830004FF0010C0CFA01FC15EA0C0F51D013F01B
:10184000010F5AD023684CEA03032360336898479A
:10185000F8BD2E4C4FF4737221462D4822F0EFF95B
:101860004FF47371204622F0E3F9284C40F2CF3256
:101870002146274822F0E3F940F2CF31204622F0FA
:10188000D7F9224C40F2D3322146214822F0D7F931
:1018900040F2D331204622F0CBF91C4C40F2D63234
:1018A00021461B4822F0CBF940F2D631204622F0E7
:1018B000BFF9164C40F2D9322146154822F0BFF943
:1018C00040F2D931204622F0B3F9104C40F2DD321B
:1018D00021460F4822F0B3F940F2DD31204622F0D4
:1018E000A7F90A4C40F2E9322146094822F0A7F94B
:1018F00040F2E931204622F09BF9236823EA0C03E9
:101900002360A3E70200030002000100BCB502004F
:10191000F0B5020008B54FF480313C4821F07CFE60
:10192000002840D14FF0B8620D213948FFF7E8FE9A
:10193000014600283FD14FF48031364821F06CFE3B
:10194000014600283ED14FF0B8620E213048FFF723
:10195000D7FE014600283CD14FF480312E4821F0BB
:101960005BFE014600283BD14FF0B8620C212848AD
:10197000FFF7C6FE0146002839D14FF480312748D1
:1019800021F04AFE0146002838D14FF48031244826
:1019900021F042FE014668B110231D4A1268214819
:1019A00021F040FF06E001460D23194A12681D4848
:1019B00021F038FF08BD0D23154A12681A4821F09E
:1019C00031FFF7E70E23124A1268164821F02AFF6A
:1019D000F0E70E230E4A1268134821F023FFE9E7CF
:1019E0000C230B4A12680F4821F01CFFE2E70C237E
:1019F000074A12680C4821F015FFDBE70F23044A61
:101A00001268084821F00EFFD4E700BF8CB6020030
:101A100050B0020084B602007CB6020074B6020028
:101A20006CB6020008B6020034B602000346054A4E
:101A30000068106099889B7991809371024B012214
:101A40001A70704710160020EA34002010B51446B2
:101A500012F4005F06D114F4804F0AD114F4805FB1
:101A60000ED110BD0A4821F0DDFE0A4B01221A708A
:101A7000F1E7094821F0D6FE064B02221A70EDE785
:101A8000064821F0CFFE034B04221A70E9E700BF9D
:101A900094B60200E7340020ACB60200C4B60200DF
:101AA000F8B51649164F4F604FF400538B60154C34
:101AB000204621F0CEFD2668134D0D2231462846E2
:101AC00021F0B0FE11494F604FF480438B602046F7
:101AD00021F0BFFD0E223146284621F0A3FE0C491D
:101AE0004F604FF480538B60204621F0B2FD0C22F2
:101AF0003146284621F096FEF8BD00BF4016002072
:101B00004D1A000050B00200D8B602003416002072
:101B100028160020F0B58BB004460D461646037813
:101B2000032B38D8DFE803F002212B311D4B93E85B
:101B300003000790ADF82010090C8DF8221063798E
:101B40002279E178A07867780DF11C0CCDF814C0EB
:101B500004970390029101920093A379124A3146AF
:101B6000284621F057FA0BB0F0BD104B93E8030064
:101B70000790ADF82010090C8DF82210DFE70C4A11
:101B800007AB07CA03C31A80D9E70A4A07AB07CADB
:101B900003C31A80D3E7084A0A2107A821F03AFABA
:101BA000CDE700BFF4B602000CB70200FCB602009D
:101BB00030B702003CB7020004B7020030B589B06C
:101BC0000D46144625F061F81E226946FFF7A2FF74
:101BD00034B92A466946064821F024FE09B030BDD2
:101BE00023462A466946034821F01CFEF6E700BF5B
:101BF00048B7020068B7020010B588B00C4625F05F
:101C000044F81E226946FFF785FF224669460248CE
:101C100021F008FE08B010BD90B7020010B588B0E2
:101C20000C4625F032F81E226946FFF773FF224664
:101C30006946024821F0F6FD08B010BDB4B70200B5
:101C400000B589B0694607F0C5F9BDF81830BDF890
:101C50001620BDF81410034821F0E4FD09B05DF82A
:101C600004FB00BFD8B7020008B5002203491046A4
:101C70000BF00EFC02481EF0DFFE08BD2D1A00001E
:101C80001816002010B588B00C4624F0FEFF1E2266
:101C90006946FFF73FFF22466946064821F0C2FD2C
:101CA00000F0D8FA044B00221A70FFF7DDFF08B0ED
:101CB00010BD00BF18B80200E834002030B589B06C
:101CC00005460C4624F0E1FF1E226946FFF722FF7D
:101CD00094B13C2C05D022466946114821F0A2FD62
:101CE0001CE069460F4821F09DFD0F4B01221A7040
:101CF0000E481EF0A1FE11E069460D4821F092FD4C
:101D00000C4B01221A70084B00221A700A4B00205B
:101D10000021C3E90001284600F092FA09B030BD65
:101D200060B802003CB80200E93400201816002018
:101D300080B80200E8340020300C002010B582B0DA
:101D400043681B6801248C4023420AD001A921F07A
:101D500074FC20B9019B1C4214BF0120002002B07A
:101D600010BD064C40F2FB522146054821F067FFAA
:101D700040F2FB51204621F05BFF00BFBCB50200E2
:101D8000F0B5020030B59BB03E4B1B7813B13E4B13
:101D90001B786BB30DF1540C3C4C0FCCACE80F002E
:101DA0002368CCF800300DF12C0C0DF1540EBEE878
:101DB0000F00ACE80F00DEF80030CCF80030302324
:101DC0000D9350230E9340F203230C9301230093B1
:101DD0002F4B03222F490BA806F028F804460028B1
:101DE0002FD12D4821F01EFD002C2FD01BB030BD6F
:101DF00010AC2A4D0FCD0FC42B6823600BAC0DF136
:101E0000400CBCE80F000FC4DCF800302360232333
:101E10000C93002100910B460A460BA806F006F829
:101E2000044648B91E2203A91D48FFF773FE03A903
:101E30001C4821F0F7FCD7E701461B4821F0F2FCD3
:101E4000D4E70146194821F0EDFCCFE728F0BBFEAE
:101E50004A0142EAD06243011B1A62EB010292007E
:101E600042EA93729B001B1842EB0102D20042EA45
:101E70005372C3F3103343EA4243D20B0C490B6055
:101E80004A60B3E7EA340020E934002034B40200A9
:101E900048BA020050BA02000CB9020020B4020095
:101EA00010160020C0B8020090B80200E4B802008A
:101EB000300C002010B504460F211548FFF73EFFF7
:101EC00001280CD1A4B1134B93F900301BB9114B6D
:101ED00001221A700CE05B000E4A137008E010211A
:101EE0000B48FFF72BFF012804D00024094B1C707E
:101EF000204610BD002CFBD0064B93F900301BB9D7
:101F0000044BFF221A70F3E75B00024A1370EFE7FD
:101F100050B00200E63400202DE9F04383B021F0F8
:101F200086FBFFF7BDFDFFF733FBFFF743FB6A4876
:101F300021F078FC694807F0E5F980B9002005F048
:101F400033F8014678B9664821F06CFC22F056FA65
:101F5000644965481EF0F0FCFFF786FE31E06348F7
:101F600021F060FC60E0624821F05CFC5CE0B4F1D0
:101F7000640145F1FF325F4B18685B68884293410A
:101F800003DA5D4B1B78002B51D15C4B1A685B6800
:101F9000A21A65EB0303652A73F1000370DA584B4C
:101FA0001A685B68A21A65EB030340F2E9318A42C2
:101FB00073F1000380F2848040F6CD4000211FF0D1
:101FC00097FF28F000FE4D0145EAD0654401241A30
:101FD00065EB0105AD0045EA9475A400241845EBB6
:101FE0000105ED0045EA5475C4F3103444EA454454
:101FF000ED0B444B1B78002BB9D1434A1368526850
:10200000009301921343B2D0684621F030FB3F4B5E
:1020100083424FF000038B41A9DA3D4821F002FCD6
:102020000F2100201CF044FA03B0BDE8F083DFF874
:10203000E490484621F0F6FB2F4EDFF8DC80317843
:10204000404621F0EFFB00231A461946307821F074
:1020500031FB212000211FF04BFF0027377048463D
:1020600021F0E0FB3178404621F0DCFB3B463A466C
:102070003946307821F01EFB1E4B1C605D6084E702
:10208000264B1A685B68A21A65EB030340F22D1118
:102090008A4273F10003ACBF01200020FFF70AFF62
:1020A00010B11E4B1C605D601D4B93F90030002287
:1020B0001146104621F0FEFA104B1C605D606EE781
:1020C0000120FFF7A9FA0146164821F0ABFB0C4BA3
:1020D0001C605D6070E700BF2CB902003402002074
:1020E000A4B90200673602001816002050B9020099
:1020F00084B90200280C0020E7340020200C0020C6
:10210000100C0020E8340020300C00201FBF02001B
:10211000BCB90200FCB9020014BA0200180C00207D
:10212000E634002028BA0200012914BF0021012151
:10213000014B1970704700BFED340020012914BF16
:1021400000210121014B1970704700BFEE340020BF
:1021500010B584B001240294044C0194BDF81840D9
:10216000009425F09BFE04B010BD00BFEB340020AE
:1021700010B584B042240294044C0194BDF8184078
:10218000009425F08BFE04B010BD00BFE0BB020040
:1021900010B584B004240294044C0194BDF8184096
:1021A000009425F07BFE04B010BD00BF28BC0200E7
:1021B00010B511461A46BDF8083091F800C09DF8D8
:1021C0000C0010F0020F0CD01446981801280BD800
:1021D000BCF1010F0BD80748184428F0B7FE204681
:1021E00010BD6FF0FB04FAE76FF00604F7E76FF03D
:1021F0000504F4E7EB34002010B511461A46BDF88B
:10220000083091F800C09DF80C0010F0020F0CD0BF
:102210001446981801280BD8BCF1010F0BD80748B9
:10222000184428F093FE204610BD6FF0FB04FAE737
:102230006FF00604F7E76FF00504F4E7EC340020D4
:10224000024B1860024B01221A707047581600208A
:10225000EB340020014B00221A6070475816002012
:10226000014B1878704700BFEB34002008B5094BCC
:10227000186848B124F0C8FC012805D9064B1B7822
:1022800023B9064B187800E0002008BD044B1878ED
:10229000FBE700BF58160020EB340020ED3400208F
:1022A000EE34002070B588B006292AD106460D46C6
:1022B000264B1B78002B30D0254B186824F0A4FC4B
:1022C000012836D9002401940294039404940594BF
:1022D000069406232A4631461E4828F086FD8DF8CE
:1022E0001C4042F64D23ADF81E3007AB0193039618
:1022F000ADF8105001A9164B186809F0DBF808B0CA
:1023000070BD154C40F269122146144821F097FC2B
:1023100040F26911204621F08BFC0F4C4FF4B5724E
:1023200021460E4821F08BFC4FF4B571204621F078
:102330007FFC094C40F26B122146084821F07FFCDB
:1023400040F26B11204621F073FC00BFEE340020F8
:10235000581600205016002068BA0200F0B502009E
:1023600070B588B004292AD106460D46264B1B7845
:10237000002B30D0254B186824F046FC012836D9B4
:102380000024019402940394049405940694042375
:102390002A4631461E4828F028FD8DF81C4042F69A
:1023A0003323ADF81E3007AB01930396ADF8105000
:1023B00001A9164B186809F07DF808B070BD154CDE
:1023C00040F27B122146144821F039FC40F27B1187
:1023D000204621F02DFC0F4C4FF4BE7221460E48D2
:1023E00021F02DFC4FF4BE71204621F021FC094C58
:1023F00040F27D122146084821F021FC40F27D1177
:10240000204621F015FC00BFED34002058160020B6
:102410004C16002068BA0200F0B502004FF0000C24
:10242000944515D210B511F80C3058400309094CE9
:10243000E35C83EA00135FFA83FEC3F30313E05CFB
:1024400080EA0E10C0B20CF1010C9445EBD310BD24
:10245000704700BF2CBC020010B5864600206423E4
:1024600010E00CF1300C0EF801CB0139C9B201308B
:10247000C0B2B2FBF3F403FB1422D2B2094CA4FBAA
:102480000343DB0849B143B1B2FBF3FC9A42E8D203
:10249000012BE6D00028ECD0E3E711B100238EF841
:1024A000003010BDCDCCCCCC08B5024B1B68984792
:1024B00008BD00BF28030020014B1860704700BF13
:1024C0002803002000B585B00A460023009301933D
:1024D0000293039302238DF80230044B01930146CB
:1024E000684620F029FE05B05DF804FBA924000031
:1024F00080B505460E46174698461FF035FD034643
:1025000028F042FD0446DFF8189049F800304246B2
:1025100039463046A84754F8090001F08FFF00BF44
:102520000800000081B310B50468204621F009FAC4
:102530000146C20004EBC0035B8813F0010F0FD00B
:1025400000EB530334F833001B1A994212D1A3183D
:102550005A8822F001025A80204621F00EFA10BD5E
:102560000A4CAF2221460A4821F069FBAF212046E0
:1025700021F05EFB054CB7222146054821F05FFBA8
:10258000B721204621F054FB704700BF50BC020029
:10259000F0B502002DE9F843154606684B420B40A2
:1025A00001F1FF3919EA010904D0032B4BD84C463D
:1025B000994603E00C46042940D90423621E2242B6
:1025C00045D1002D63D0B268B2EBD50F62D9611945
:1025D000C91A0B31C908304621F000FA0746002815
:1025E0005BD00146304621F02BF900EB0908A044EE
:1025F00008F1FF38B8FBF4F804FB08F8A8EB090869
:1026000008EB0504073424F007044146304621F066
:1026100098F90546A41BE410874224D3EF0006EB8B
:10262000C5035B8805EB53039C4226D33E44738865
:1026300043F0010373804046BDE8F883114621F062
:1026400008FA8046F7E74C4699460423B6E7144C4F
:102650004FF4A2722146134821F0F1FA4FF4A2710F
:10266000204621F0E5FA02463946304621F032F99B
:102670003946304621F075F9D0E7224629463046E2
:1026800021F028F92146304621F06BF9CEE74FF0D2
:102690000008D0E74FF00008CDE74FF00008CAE788
:1026A00050BC0200F0B5020070B5B2F5802F1FD209
:1026B0000346042A28D9043AC81D20F007000A441A
:1026C00022F00702121AD508172A29D91860856046
:1026D0000023C360B5FA85F1C1F1200EC1F12401D8
:1026E0008900CE1DF1084B1CAB4225D8002335E0F4
:1026F0002C4C40F2EB1221462B4821F0A0FA40F27C
:10270000EB11204621F094FA264C4FF4F972214641
:10271000254821F094FA4FF4F971204621F088FA07
:10272000204C40F2FB1221461F4821F088FA40F26B
:10273000FB11204621F07CFA1A4C4FF4037221461B
:10274000194821F07CFA4FF40371204621F070FA09
:1027500003F1040C002440F82C4001337345F7DBEF
:102760004C00A4B244804FF0000CA0F800C044F02C
:10277000010444806B1A4FEA430E26F00704A51C9F
:1027800020F805E0015322F00704951C20F805C04D
:1027900002440353538843F00103538021F0E1F8CE
:1027A00070BD00BF50BC0200F0B5020010B5044679
:1027B0008C46838B002A12DB03F007035A1F012A81
:1027C00019D9042B4FD1002121F075F9204621F0B1
:1027D0009CF978B1A38B43F02003A3830AE0D0E9EE
:1027E00000018CE803000023236063600121204680
:1027F00021F061F910BDD0E900018CE8030000224E
:1028000022606260062B0FD0052B20D100212046CC
:1028100021F051F9204621F078F90028EAD0A38B65
:1028200043F02003A383E5E7DCF8003053B1E28BEB
:102830000132E2831A461B68002BF7D0002AF5D13B
:102840001346F3E70221204621F035F9E2E70C4C6C
:1028500040F2091221460B4821F0F1F940F209112A
:10286000204621F0E5F9064C40F21B1221460548AE
:1028700021F0E5F940F21B11204621F0D9F900BF03
:1028800074BC0200F0B502002DE9F04782B0838BE2
:10289000E1B10446154603F0070603F008020846B6
:1028A00082B301291ED0022920D143F02003A38343
:1028B00004F114001DF004F9002800F0678185F38D
:1028C0001188BFF36F8F02B0BDE8F087B54C40F2BE
:1028D00033122146B44821F0B2F940F233112046B8
:1028E00021F0A6F943F01003A383E1E7AD4C4FF4C8
:1028F0009E722146AC4821F0A2F94FF49E71204609
:1029000021F096F900230093019358E0204621F02E
:10291000FCF856E0D4F818904A4669462046FFF77E
:1029200045FF0027A38B03F00708B04500F0FF80A8
:10293000A268002A00F0FB80012643F00803A3836D
:1029400004F1140A50461DF0BBF8002800F0F8808E
:1029500085F31188BFF36F8F002E40F0FD80009B40
:102960002BB14B4642466946204621F00FF917B17C
:102970008E492046B8474FF02003EFF3118583F3CB
:102980001288BFF36F8F50461DF08AF8002800F0C0
:10299000E98050461DF0A4F8A38B23F00803A3831D
:1029A000A38B13F0100F00F0E78023F01003A38334
:1029B0000120A68B06F0070600283FF479AF022815
:1029C000A4D000283FF474AF0138042800F2A3809B
:1029D00001A353F820F000BF15290000172B0000B9
:1029E000ED2900004F2A0000B32A00005EB92368D9
:1029F000ABB123691F68F7B10621204621F05BF8CF
:102A00004FF000098EE7674C4FF4AB7221466648E1
:102A100021F015F94FF4AB71204621F009F9614C12
:102A200040F257122146604821F009F940F257114F
:102A3000204621F0FDF85B4C4FF4AD7221465A4818
:102A400021F0FDF84FF4AD71204621F0F1F8022E8F
:102A50000BD1E38BABB923695F68F7B10421204642
:102A600021F029F84FF000095CE74E4C40F25D126E
:102A700021464D4821F0E3F840F25D11204621F057
:102A8000D7F8484C4FF4AF722146474821F0D7F8A9
:102A90004FF4AF71204621F0CBF8424C40F2611266
:102AA0002146414821F0CBF840F26111204621F047
:102AB000BFF8012E0BD12368ABB123699F68F7B132
:102AC0000521204620F0F7FF4FF000092AE7354C9A
:102AD0004FF4B2722146344821F0B1F84FF4B2718C
:102AE000204621F0A5F82F4C40F2651221462E48D1
:102AF00021F0A5F840F26511204621F099F8294C03
:102B00004FF4B4722146284821F099F84FF4B4717B
:102B1000204621F08DF8234C40F26B1221462248CA
:102B200021F08DF840F26B11204621F081F8009AD7
:102B30000AB1002601E7002F3FF432AF0026FCE681
:102B40001B4C40F231122146174821F078F840F230
:102B50003111204621F06CF84A464146204620F0CB
:102B6000B2FFFCE6124C882221460F4821F067F89C
:102B70008821204621F05CF813F0200F04D023F0C8
:102B80002003A383022014E7002012E7084C40F240
:102B900031122146044821F052F840F2311120460A
:102BA00021F046F874BC0200F0B50200B52B00001D
:102BB00098BC0200F8B504460D4600F114064FF02B
:102BC0002003EFF3118783F31288BFF36F8F304632
:102BD0001CF066FF48B130461CF082FFA5613A4602
:102BE00001212046FFF750FEF8BD054C8822214602
:102BF000044821F024F88821204621F019F800BF6C
:102C000098BC0200F0B502002DE9F84F0446884652
:102C100020F094FF061E43DB04F114074FF020035D
:102C2000EFF3118A83F31288BFF36F8FD3463846D0
:102C30001CF036FF8146A8B138461CF051FFA58B29
:102C400005F00705E38B4FF6FF72934245D02E4601
:102C5000022D11D0062D34D8DFE805F02C46333391
:102C60002C252C00354C88222146354820F0E7FFE2
:102C70008821204620F0DCFF0133E38300231A463D
:102C800042B10022C8F800206268A2B3C2F80080F6
:102C9000C4F80480A3B3524602212046FFF7F4FD96
:102CA0003046BDE8F88F6FF085064FF000094B46BF
:102CB0004A46E5E7B5FA85F35B094A464FF0000955
:102CC000DEE7204C4FF4E47221461D4820F0B7FFA8
:102CD0004FF4E471204620F0ABFF6FF00A064FF08E
:102CE00000094B464A46CBE76FF004064FF0000957
:102CF0004B464A46C4E7C4F80480C4F80080C9E7DC
:102D000038461CF0DDFE68B18BF31188BFF36F8F7E
:102D1000B9F1000FC4D000232A464146204620F0D6
:102D200022FFBDE7054C40F231122146044820F055
:102D300086FF40F23111204620F07AFF98BC020055
:102D4000F0B5020074BC02002DE9F041044600F128
:102D500014054FF02003EFF3118683F31288BFF3BD
:102D60006F8F28461CF09CFE70B1374628461CF039
:102D7000B7FEA38B03F007039846022B11D0012B5B
:102D80000CD06FF0850812E01D4C882221461D48AA
:102D900020F055FF8821204620F04AFF6FF00408FC
:102DA00005E0E38B73B1013B9BB2E383B3B12846EB
:102DB0001CF086FEC0B187F31188BFF36F8F4046C9
:102DC000BDE8F081104C40F2EF1221460D4820F092
:102DD00036FF40F2EF11204620F02AFF3246022152
:102DE0002046FFF751FDEAE7054C40F2311221463B
:102DF000044820F024FF40F23111204620F018FF53
:102E000098BC0200F0B5020074BC020010B5034685
:102E1000426802F003028160022A10D0032A0BD01C
:102E2000012A0FD00C4C452221460C4820F007FF08
:102E30004521204620F0FCFE0468002004E00068E4
:102E4000002401E00024204600225A6008B120F04E
:102E500049F8204610BD00BFC8BC0200F0B5020012
:102E60002DE9F04387B0044600230393C36A1E791B
:102E700000F114094FF0FF324FF0FF3348461CF0C9
:102E8000D9FFE36A1B68DAB2012A06D9D71D53427B
:102E90001F404FF00008454603E00827F9E70135D9
:102EA000ADB2E389AB421CD9A189C91B89B201EB40
:102EB0000541039108233246204620F028FF0028D0
:102EC000EDD008F101081FFA88F803A9204620F088
:102ED000E5FE082332460399204620F018FF00281B
:102EE000DDD1E389434500F0F380AB420DD003A967
:102EF000204620F07BFF0546002840F0CE80039B53
:102F000063601B0C1B04A36010E008233246039986
:102F1000C91B204620F0FBFE0028E8D103A920466B
:102F200020F0BCFEE3E76368DB1B63606168A368B5
:102F300099422ED304AA204620F09FFE0546002881
:102F400040F0A480314604A820F09CFE08B304A9F8
:102F5000204620F02FFF0028E5D0BDF80E301904E0
:102F6000A160BDF81230BDF814000344E26A126893
:102F7000D5B2012D03D92B44013B6A4213400B44C7
:102F8000A36062689342CED10028CCD06FF01C05BC
:102F900083E0E3881B04039303A9204620F07EFE10
:102FA000A38932460399204620F0B1FE051E74DB4A
:102FB000002D58D063683B44039302E0039B3B44DD
:102FC000039303998AB2A389DB1B9A4218D201AA00
:102FD000204620F052FE0546002857D101A9204680
:102FE00020F0E8FE0028E9D0BDF804204FF6FF737A
:102FF0009A42E3D1BDF80830002BDFD1012300E075
:103000000023D3B94921344821F059F96168204699
:1030100020F0A5FE054600283FD1E3881B0463602D
:10302000A289A2EB4702134463601B0C1B04A3603C
:10303000204621F044F8054628E04921274821F0A0
:103040003EF9E3881B04039303A9204620F026FEE3
:103050000399204620F083FE054617E0A368E26A44
:1030600012681344A3606368A1688B4208D95B1A95
:103070003246204620F04BFE051E07DB002DEDD129
:10308000616801EB4702A3899A420DD02DB9A2884D
:10309000A389A3EB47039A4215D048461CF0BAFF18
:1030A000284607B0BDE8F083A2680B0C1B049A42C7
:1030B000ECD0204620F053FE05460028EDD1E388F1
:1030C0001B04A360E2E7204620F0E1FF0546E4E7A9
:1030D0006FF02C05E1E700BF08BD0200ECBC020068
:1030E00030B585B00446143027F0B1FBA06A836880
:1030F000DB689847E06200B3A06A8368DB689847A2
:103100000368013B1F2B1FD8A06A216801AA26F083
:10311000D3FA00BBA3892BB3029AB3FBF2F102FBF3
:103120001133FBB9E389012B23D92046FFF798FE21
:10313000054628B3284605B030BD45211C4821F07E
:10314000BEF86FF01505F5E745211A4821F0B7F8EC
:103150006FF01505EEE74521174821F0B0F86FF044
:103160001505E7E74521154821F0A9F86FF0150589
:10317000E0E74521124821F0A2F86FF01505D9E7E4
:1031800001232374A389E28949210E4821F097F88D
:10319000626893B2120C49210B4821F090F8A268A2
:1031A00093B2120C4921094821F089F8C2E700BF07
:1031B00050BD020078BD02009CBD0200BCBD0200F3
:1031C000D8BD020000BE02001CBE020034BE0200D8
:1031D0002DE9F04F87B0019290F810B0BBF1000FCD
:1031E00026D004460E469946C36A1B68D9B2012907
:1031F00025D901F1070A4A420AEA020A012921D91E
:10320000DBB203EB090808F1FF385B4208EA030868
:10321000A389A3EB8A03994500F28980B9F1000FD5
:1032200003D0019B002B00F08580636803930FE0BF
:103230004521424821F043F86FF00C056FE04FF054
:10324000080ADBE7C846E3E76268039B9A4213D0AB
:10325000039F04AA03A9204620F028FE0546002863
:103260005DD1BDF810309E42EED104A9204620F079
:10327000A1FD0028E8D001E04FF0000BBBF1000FEA
:1032800018D03F0C3F04BDF81230F918B9F1000F07
:1032900003D1BDF8143083B941E0BDF8143099452D
:1032A0000BD14B46019A204620F005FD002804DC96
:1032B000054634E0B9F1000F31D0B8F1000F1DD050
:1032C0001AFA88F7BFB204F114084FF0FF324FF03A
:1032D000FF3340461CF0AEFDE3899D421AD0626880
:1032E000A3683B449A420BD2204620F0A7FFD0B9F6
:1032F000204620F0E4FEC0B90135EDE70027E2E703
:103300004B46019A3146204620F079FF054618B910
:103310004D4601E06FF01B0540461CF07BFE284641
:1033200007B0BDE8F08F0546F6E70546F4E76FF015
:103330001505F4E76FF01505F1E700BF34BD020095
:103340002DE9F04784B09946BDF83080037CA3B1E5
:1033500004460F469246C36A1B68DAB2012A13D9A3
:10336000134607325B421A40A389A3EB42039945F7
:103370004BD86668039600250CE04521274820F0CD
:103380009EFF6FF00C0335E00822EDE76268039BB7
:103390009A4216D0A84514D3039E01AA03A9204639
:1033A00020F084FD034628BBBDF804309F42EDD1D8
:1033B00001A9204620F0FEFC0028E7D00135ADB27F
:1033C000E4E76268039B9A4218D0BDF80830FBB16D
:1033D000A84520D8360C3604BDF806104B4528BF4A
:1033E0004B4652463144204620F038FC034608B98B
:1033F000BDF80830184604B0BDE8F087BDF80430C9
:103400009F42E2D06FF00103F4E76FF01503F1E79C
:103410006FF00103EEE76FF00103EBE734BD02004C
:10342000014B03600020704754BE02008446002315
:1034300000E00133074A12689A4208DD1A01064982
:10344000096801EB03108A5C6245F2D100E00020BC
:10345000704700BF54BE02002C03002038B50C4B4F
:103460001B687BB10C46FFF7E1FF054668B1C068F9
:1034700028B127F067F910B12560002038BD6FF042
:103480001200FBE76FF00C00F8E76FF00100F5E7C2
:103490002C03002000B58BB003AB0093024B20F04F
:1034A00058FF0BB05DF804FB1743020008B5012973
:1034B00005D0044A4921044820F001FF08BD034A11
:1034C000F8E700BF4CBF020058BF020044BF020033
:1034D00010B586B0074C24788DF81740012402946B
:1034E0000DF117040194BDF82040009424F0D6FC9F
:1034F00006B010BDFC0900202DE9F8430F4B1D68F4
:10350000CDB180460F4614460D4E4FF0FF324FF0BE
:10351000FF3330461CF08EFC6B68D3F808902346CE
:103520003A4641462846C847044630461CF072FDDC
:103530002046BDE8F8836FF00104F9E75C1600202F
:10354000700A002000230360054B5B681BB1186004
:10355000034B58607047024B58601860704700BFBB
:1035600060160020014B1860704700BF5C160020F9
:1035700030B585B005460023019302930393019073
:103580004FF0FF324FF0FF330E481CF053FC0E4B50
:103590001C6864B163681B6801A9204698472346EC
:1035A0002468002CF5D0002BF3D11C46F1E7284607
:1035B00000F0C2F8044603481CF02CFD204605B07C
:1035C00030BD00BF700A002060160020024B0022B0
:1035D0001A605A60704700BF6016002008B5034BA0
:1035E00000221A605A60FFF7F1FF08BD681600203C
:1035F000F0B583B006460F4609B100230B602D4C91
:10360000002504E00FB1019B3B60254614342A4B92
:103610009C4219D8284B9C4220D201AA21683046EE
:1036200020F0F7FE0028F1D0002DEBD00022296811
:10363000206820F0EEFE0028E8D01FB1019B3B601F
:103640002546E3E72546E1E71C4C942221461C4829
:1036500020F0F5FA9421204620F0EAFA194B1C6874
:103660003CB1143C05E014F1140317D0646904B1B3
:10367000143CE4B101AA2168304620F0CAFE0028BB
:10368000F1D06DB100222968206820F0C2FE002828
:10369000ECD057B1019B3B602546E7E71C46E8E7C5
:1036A0000FB1019B3B602546E0E72546DEE7284653
:1036B00003B0F0BDE0B302001CB40200C8BF0200BA
:1036C000F0B50200681600202DE9F04385B00446ED
:1036D0000E4690461F460C9D0390A5B1296819B16E
:1036E00003AA20F096FE58B1D5F80490B9F1000F66
:1036F00009D0AB6800933B46424631460398C84721
:1037000005B0BDE8F08303A92046FFF771FF78B14B
:1037100085683B46424631460398A8470346002841
:10372000EED022464521034820F0C9FD0020E7E7FE
:103730000020E5E7FCBF020070B50546214C0026DD
:1037400000E01434204B9C4212D81F4B9C4219D2EB
:1037500035B100222946206820F05BFE0028F0D019
:10376000E368002BEDD09847002EEAD10646E8E743
:10377000164CF4222146164820F061FAF421204626
:1037800020F056FA134B1C683CB1143C05E014F1D0
:10379000140313D0646904B1143C8CB135B1002218
:1037A0002946206820F035FE0028F0D0E368002B81
:1037B000F0D09847002EEDD10646EBE71C46ECE72B
:1037C000304670BDE0B302001CB40200C8BF020066
:1037D000F0B502006816002010B54FF0FF324FF030
:1037E000FF330B481CF026FB0A4B1B782BB100243F
:1037F00007481CF00FFC204610BDFFF7EFFE00F05D
:103800008BF804460028F3D1024B01221A70EFE72F
:10381000700A0020EF3400202DE9F04798B0804670
:103820008946048F0134A4B24FF0000A0EE000284C
:1038300042DD2946384620F034FD2146384620F046
:1038400030FDB8F83830AB4245D02C46651EADB2DD
:10385000B5F5004F2CD008F108074A2303AA2946E2
:10386000384620F024FD064604F57F543F34A4B2C8
:1038700001230DF10B022146384620F018FD002EE1
:10388000D5DD0028D5DD06F160030DEB030600232E
:1038900006F8543C1697ADF85C40CDF8009016AB96
:1038A000124A014603A8FFF70FFF82460028CCD03A
:1038B000504618B0BDE8F087B8F83830AB42C4D1F4
:1038C000013B424622F8383F02234FF4004138467C
:1038D000FFF77EFCB9E7013B424622F8383F02235E
:1038E0004FF400413846FFF773FCAEE7A3440200F3
:1038F00008B5034B4360FFF725FE002008BD00BF5D
:10390000B803002008B5034B4360FFF72BFE0020EF
:1039100008BD00BFB803002010B584B00123009398
:1039200003A90320FFF79AFD034610B1184604B01F
:1039300010BD01AA69460320FFF7ACFD034610B194
:1039400010F10C0FF2D1029CB4F5803F23D200227B
:103950001346072B07D8224403998968914202D362
:1039600001339BB2F5E70D488482C382039B5A68FA
:103970008260DB68C36320F040FE03460028D5D197
:103980000648FFF7B5FF03460028CFD10348FFF7ED
:10399000B9FF0346CAE76FF02003C7E7701600209F
:1039A000014B1868704700BFCC030020F0B589B008
:1039B00005460C46082220F0E5FF002702970197F4
:1039C0000097E36A0393236B0493636B0593A36BE4
:1039D0000693E36B079308236A466946684621F01D
:1039E0001CF8064608236A462946284621F015F8A1
:1039F0000644236B0393636B0493A36B0593E36B00
:103A00000693079708236A466946684621F005F839
:103A1000064408236A462946284620F0FEFF06444D
:103A2000236A0093636A0193A36A0293059704973C
:103A30000397A36B0693E36B079308236A46294613
:103A4000284620F0EAFF0644636A0093A36A0193C4
:103A5000E36A0293636B0393A26B0492E26B059299
:103A60000693236A079308236A462946284620F0CE
:103A7000D4FF0644E36A0093236B0193636B0293C4
:103A8000059704970397236A0693A36A079308236D
:103A90006A462946284621F000F8361A236B00931F
:103AA000636B0193A36B0293E36B039305970497F6
:103AB000636A0693E36A079308236A462946284601
:103AC00020F0EBFF361A636B0093A36B0193E36B5B
:103AD0000293236A0393636A0493A36A0593069788
:103AE000236B079308236A462946284620F0D5FF12
:103AF000361AA36B0093E36B01930297636A0393F7
:103B0000A36A0493E36A05930697636B07930823FC
:103B10006A462946284620F0C0FF361A0FD50823EA
:103B20000C4A2946284620F078FF3618F7D40FE0D3
:103B30000823084A2946284620F0AFFF361A002EEF
:103B4000F6D108222946034820F027FF0128EFD1AB
:103B500009B0F0BD38C0020070B48DB006460D4605
:103B60000DF1040C2B4C0FCCACE80F000FCCACE8E3
:103B70000F0094E807008CE80700002E45D030467F
:103B8000002D44D000230FE015F8234005EB8301FE
:103B90004A78120442EA04628C7842EA0422C97824
:103BA0000A4340F823200133032BEDD906E0191F07
:103BB00050F821104A4040F8232001332B2B20D805
:103BC0005A1E50F8222013F0030FF0D14FEA326250
:103BD000110E114C655CC2F30741615C090441EAB6
:103BE0000561C2F30725655D41EA0521D2B2A25CF9
:103BF000114323F0030230326A4452F82C2C4A401D
:103C0000D5E701200DB070BC70470020FAE7002016
:103C1000F8E700BF48B40200E4C0020000284ED01C
:103C200070B584B01546064600294AD0002A4AD00D
:103C300010230A461946684620F004FD29466846C6
:103C400021F0A5FC002414E01DF803101F48415C7E
:103C50000DF8031001330F2BF6D9684621F0D8FC7C
:103C6000684621F04FFD013405EB0411684621F050
:103C70008EFC082C01D80023EDE7002306E01DF898
:103C8000032012498A5C0DF8032001330F2BF6D96B
:103C9000684621F0BDFC611C05EB0111684621F06E
:103CA00076FC10236A461946304620F0CBFC1022E1
:103CB0000021684620F0D3FC012004B070BD002034
:103CC00070470020F9E70020F7E700BFE4C00200DA
:103CD00010B582B0044683680093436802684521AA
:103CE0000B4820F0ECFA636900932369E2684521F0
:103CF000084820F0E4FAE2694521074820F0DFFA9D
:103D0000A2694521054820F0DAFA02B010BD00BFD3
:103D1000E4C1020018C202004CC2020060C20200EC
:103D200030BFFFF7FDBF00BF38B50446084D2A4637
:103D3000084927F00BF90848431E2B44B3FBF0F366
:103D4000064A002100FB034027F00EF938BD00BFF2
:103D5000000000001CB40200010000000800000088
:103D600070B505460C480D4A0244013AB2FBF0F228
:103D70000B4B0C4C1C44013CB4FBF3F404FB03F36D
:103D800000FB02340E1B3046FFF7CEFF083EC5F89D
:103D9000A86004F1080070BD0100000000000000F0
:103DA0000400000008000000044B9968586988422C
:103DB00003D003494FF080520A6070477C340020E2
:103DC00004ED00E081690D4B5A6942F480725A613A
:103DD000BFF34F8FBFF36F8F31F8021C5A6922F483
:103DE00080725A61BFF34F8FBFF36F8F4DF602732E
:103DF000994201D0002070470120704700ED00E09B
:103E00004FF0000C83F800C002F07F4CBCF17F4FF4
:103E100013D102F00C0CBCF1080F04D012F0080F03
:103E200008D00846704708B54521054820F047FAF4
:103E3000002008BD01221A7070470020704700BFA3
:103E400094C20200F8B505460F4614464521334892
:103E500020F035FA324B9B6A13F4805F25D1162689
:103E60002F4B9B6A13F4006F25D12D4B9B6A13F4E3
:103E7000007F26D12A4B9B6A13F4806F3BD1284BDD
:103E80009B6A13F4807F3CD1254B9B6A13F4005F3F
:103E90003DD1234A936A43F47F439362012128462C
:103EA00021F073FD20703046F8BD45211D4820F0FB
:103EB00006FA1726D4E745211B4820F000FA1826F9
:103EC000D3E74521194820F0FAF9154B9A6B9B6A04
:103ED00013F4004F01D11926CCE74521144820F0F6
:103EE000EEF937B10E4A936A23F400439362192620
:103EF000C0E71926BEE745210E4820F0E0F91A2652
:103F0000BDE745210C4820F0DAF91B26C1E7452121
:103F10000A4820F0D4F91C26BBE700BFC4C2020047
:103F200000ED00E0E0C20200F8C2020010C302008F
:103F300030C302004CC302006CC302008CC30200F9
:103F400008B54521264820F0BAF9264B9B6A13F0A4
:103F5000007F21D11D20234B9B6A13F0807F21D14C
:103F6000204B9B6A13F4002F22D11E4B9B6A13F443
:103F7000802F23D11B4B9B6A13F4003F24D1194B94
:103F80009B6A13F4803F25D1164A936A6FEA034374
:103F90006FEA1343936208BD4521134820F08FF95F
:103FA0001E20D8E74521114820F089F91F20D7E7C6
:103FB00045210F4820F083F92120D6E745210D48FF
:103FC00020F07DF92220D5E745210B4820F077F934
:103FD0002320D4E74521094820F071F92420D3E7B4
:103FE000C0C3020000ED00E0E0C30200F8C302001D
:103FF00018C402003CC4020068C4020088C4020065
:1040000008B500230B704521014820F058F908BD80
:10401000B8C4020008B50F2907DC054AA1F1100356
:104020004521044820F04BF908BD034AF6E700BFDC
:10403000E4C4020018C50200FCC402002DE9F041EE
:1040400004460F46154645214A4820F038F94A4BA8
:104050009B6A13F0100F3CD11026474B9B6A13F05C
:10406000080F3CD1444B9B6A13F0020F3DD16FF017
:104070001508414B9B6A13F0010F54D13E4B9B6ACC
:1040800013F0200F55D13C4B9B6A13F0100F04D155
:10409000394B9B6A13F0020F04D0374B5B6813F463
:1040A000006F4CD1344B9B6A13F0200F04D0324A7E
:1040B000536A23F4005353622F4A936A43F0FF0379
:1040C00093620121204621F060FC28703046BDE853
:1040D000F0814521294820F0F2F81126BDE745215D
:1040E000274820F0ECF81226BCE74521254820F0AF
:1040F000E6F8214BD3F834809B6A13F0800F03D18C
:104100006FF015081326B4E7424645211E4820F0FB
:10411000D6F837B1184A936A23F0800393621326C6
:10412000A7E71326A5E74521184820F0C8F814266C
:10413000A4E74521164820F0C2F81526A3E721463A
:10414000404600F089FA80B90B4B9B6A13F0100FC0
:10415000A8D0104C40F25D1221460F481FF06FFDB1
:1041600040F25D1120461FF063FD80F309880226AE
:1041700098E700BF30C5020000ED00E04CC502002A
:10418000F8C2020084C50200A4C50200C0C5020036
:104190008CC30200E4C50200F0B5020070B506460B
:1041A0000D464521334820F08AF800232B70324B0E
:1041B000DC6A14F0020424D12F4BDB6A002B27DBCE
:1041C0002D4BDB6A13F0804F48D045212B4820F05F
:1041D00076F83046FFF7F6FDF8B9274B9B6A13F0E7
:1041E000FF0F21D1244B9B6A13F47F4F23D1224B25
:1041F0009B6AB3F5803F25D33046FFF7A1FE044606
:1042000004E045211E4820F05AF80024204670BDE5
:1042100045211C4820F053F8F8E7326845211A4838
:1042200020F04DF83468F1E72A4601213046FFF7C7
:1042300005FF0446EAE72A4601213046FFF702FE61
:104240000446E3E7114C40F22A32214610481FF0A1
:10425000F6FC40F22A3120461FF0EAFC0B4C40F2FB
:104260002E3221460A481FF0EAFC40F22E31204649
:104270001FF0DEFC18C6020000ED00E070C6020070
:1042800034C602005CC6020094C60200E4C5020007
:10429000F0B5020030B58BB0254B5D68C5F308055D
:1042A000002383F31188BFF36F8F0DF12603FFF70F
:1042B000A7FD58B104460DF12702294621F067FBFE
:1042C00005469DF827306BB10BB030BD194C4FF44B
:1042D0008B62214618481FF0B2FC4FF48B612046D8
:1042E0001FF0A6FC0DF1040C20686168A268E36869
:1042F000ACE80F0020696169A269E369ACE80F00CE
:104300009DF826304BB1089BC3F308025AB96FEAF7
:1043100053236FEA4323089305E0089B23F4FF73BC
:1043200023F00103089301A9284621F016FBCBE7EF
:1043300000ED00E0E4C50200F0B50200024A536956
:1043400043F010035361704700ED00E0EFF3088085
:10435000EFF3098101B57246FFF79CFF01BD00BF75
:10436000002013490870002080F31488BFF36F8F7A
:1043700000F078FC00200F490860BFF34F8F0E4813
:1043800080F3088800F030F8202080F311880B4873
:104390004FF40461401880F30988EFF31480022180
:1043A000084380F31488BFF36F8F00F017F9000003
:1043B0000A35002094ED00E000560020404800201F
:1043C000084BD3F89000C0F30720002306E0054A0D
:1043D000C2F898300021C2F8A01001338342F6DB06
:1043E000704700BF00ED00E010B572B6002484F302
:1043F0001388FFF7E5FF234608E003F120010E4A8A
:104400004FF0FF3042F821000133DBB2072BF4D923
:10441000002308E003F16001074A4FF0FF3042F843
:1044200021000133DBB2072BF4D962B6BFF34F8F03
:10443000BFF36F8F10BD00BF00E100E008B50A4B6D
:104440009B68834202D01DF095FD08BDEFF3058304
:10445000002BF8D0054B5A6842F080525A605A6AD5
:1044600022F400425A62EEE77C34002000ED00E0C6
:104470000A4A9368C3F8AC006FF00A01C3F8B010A1
:1044800007494B6843F080534B60002383F3118846
:10449000BFF36F8F9368D3F8B00070477C3400206F
:1044A00000ED00E016498A684FF030001044EFF349
:1044B000098C80E8F01F202080F31288BFF36F8FF3
:1044C000104F4FF000664A698A603E604FF0A804C2
:1044D000141920680C4C2060D2F8AC000023C2F8FC
:1044E000AC3080F3118804B5104600F051F9BDE8F6
:1044F000044002F1300090E8F01F8CF30988704707
:104500007C34002004ED00E0B01600201EF0040F03
:104510000CBFEFF30880EFF30980816911F8021CEA
:104520000229FFD001B521F024FA01BD002807DBE4
:1045300000F01F02400901239340024A42F8203054
:10454000704700BF00E100E000280CDB00F01F0214
:104550004009012393402030034A42F82030BFF342
:104560004F8FBFF36F8F704700E100E0002808DB3A
:104570004901C9B200F1604000F5614080F80013C4
:10458000704700F00F004901C9B2014B1954704740
:1045900014ED00E04209054B53F8222000F01F0003
:1045A000012303FA00F01040704700BF00E100E073
:1045B00010B50131072903D840B2FFF7D7FF10BD6E
:1045C000044C5822214604481FF039FB582120464C
:1045D0001FF02EFBB8C60200F0B5020008B50B4B69
:1045E0000B4A22F07F029A60BFF34F8FBFF36F8FA9
:1045F000D3F8882022F47002C3F888201AF082FFD2
:104600001DF08AFD00F088F81AF0E8FF00ED00E0E8
:104610000000000010B4A2F120040E4942F8081C6A
:1046200021F0010142F8081C42F8203C019B42F8AD
:104630001C3C029B42F8183C039B42F8143C4FF090
:10464000807342F8043C04650023C0F8AC3010BC11
:10465000704700BFF1240000104B9B68BBB110F104
:10466000160F0BD0D3F89820A2F1400C844510D837
:10467000824210D98A4207D800207047D3F8982088
:104680008A4201D800207047D3F898007047002074
:104690007047002070470020704700BF7C34002026
:1046A00008B50D4614460A4A9060D0F8A820094B78
:1046B0001A6000F06DF8204685F30988002163B682
:1046C00081F31188BFF36F8F00220023FDF710FFE5
:1046D0007C340020B0160020014910220A60704787
:1046E00010ED00E072B6404080F31188BFF36F8F89
:1046F000BFF34F8F30BF62B6BFF36F8F704700BFFD
:1047000072B6494081F31188BFF34F8F20BF80F309
:10471000118862B6704700BF002206E003F00F0365
:104720000949194420230B760132262A0ADC53B2A8
:10473000002BF3DB03F1604303F56143202183F891
:104740000013F1E7704700BFFCEC00E001B5EFF3A8
:104750000580A0F110004FEAC0000449014409C9D6
:104760009847BDE80140024908470000DCB002005C
:10477000A93D000008B5034B034A0121034800F09E
:10478000A1F908BD0000012000000020F0C60200D1
:1047900008B5D0F89830403B04480360402343609C
:1047A000034B8360012100F0A5F908BDB416002079
:1047B00000000B15084AC2F898000B6823F01F038D
:1047C000034343F01003C2F89C308B6843F00103AD
:1047D000C2F8A030704700BF00ED00E010B50446FD
:1047E000072803D8FFF7E6FF204610BD0246452103
:1047F00002481FF064FD6FF01500F6E700C70200E5
:104800002DE9F84380460F4699461646002509E0F3
:104810002146F0B221F001F9064610F1160F19D029
:1048200001360135BD4215DA05EB450408EB840479
:104830006268002AF5D0B9F1000FE9D0204621F0D6
:10484000DBF80028E4D12A46452104481FF037FD53
:104850006FF015063046BDE8F88300BF2CC7020094
:1048600010B5034C01232278FFF7CAFF207010BD5A
:10487000F034002008B50023094A1278FFF7C0FF82
:1048800010F1160F0AD0034606E0064AC2F8983027
:104890000021C2F8A0100133072BF6DD08BD00BFD0
:1048A000F034002000ED00E0F0B585B0054603A827
:1048B000FEF7B6FD0646002426E0B3F5801F40F063
:1048C000DA80506851F80C109368202B68D9B3F146
:1048D000004F67D8013BB3FA83F3C3F11F035B00BA
:1048E00003F03E0343F0885343F4302300900191DA
:1048F000029369462878FFF771FF0028C0F2BF8055
:104900002B7801332B700134A64240F2BC804FEA71
:10491000041C039901EB0412D068030D1B05B3F5C9
:10492000000F6ED01ED8B3F5001F3DD0B3F5800F39
:10493000C3D1506851F80C109368202B5DD9B3F1A6
:10494000004F5CD8013BB3FA83F3C3F11F035B0054
:1049500003F03E0343F0007343F4003300900191F1
:104960000293C6E7B3F1807F66D0B3F1007F40F0D9
:104970008280506851F80C109368202B77D9B3F1DE
:10498000004F76D8013BB3FA83F3C3F11F035B00FA
:1049900003F03E0343F48023009001910293A8E7C3
:1049A00008239FE73E239DE7576851F80C10936852
:1049B000202B1ED9B3F1004F1DD8013BB3FA83F36E
:1049C000C3F11F035B0003F03E0343F0885343F43D
:1049D000002300970191029310F0010F89D02B4C16
:1049E000702221462A481FF02AF9702120461FF024
:1049F0001FF90823E9E73E23E7E70823AAE73E2358
:104A0000A8E7506851F80C109368202B10D9B3F127
:104A1000004F0FD8013BB3FA83F3C3F11F035B00D0
:104A200003F03E0343F0827300900191029360E72C
:104A30000823F7E73E23F5E7506851F80C10936818
:104A4000202B10D9B3F1004F0FD8013BB3FA83F3F9
:104A5000C3F11F035B0003F03E0343F08873009033
:104A60000191029345E70823F7E73E23F5E7082382
:104A700090E73E238EE7452106481FF020FC6FF0AB
:104A8000150005B0F0BD0020FBE700BF54C70200D1
:104A9000F0B5020084C70200044B0522C3F894203D
:104AA000BFF34F8FBFF36F8F704700BF00ED00E083
:104AB000BFF35F8F024B0022C3F89420704700BF02
:104AC00000ED00E010B5FFF7CBFE10F1160F00D09F
:104AD00010BD064C40F26D12214605481FF0AFF89C
:104AE00040F26D1120461FF0A3F800BF54C702002A
:104AF000F0B5020010B5FFF7BDFE10F1160F00D0A3
:104B000010BD064C4FF4C672214605481FF097F8B9
:104B10004FF4C67120461FF08BF800BF54C7020047
:104B2000F0B5020038B5254B1D68082D03D8FFF7F6
:104B3000BFFF002415E0224C4FF4D27221462148D9
:104B40001FF07DF84FF4D27120461FF071F81B4B17
:104B50005B6804EB440103EB81012046FFF72AFE6A
:104B60000134A542F3D818480570FFF79DFE10F1F7
:104B7000160F0AD0FFF790FF144BD3F89030C3F311
:104B80000723082B0DD1002038BD0D4C4FF4E772E0
:104B900021460C481FF053F84FF4E77120461FF0F0
:104BA00047F8074C40F20F22214606481FF047F80D
:104BB00040F20F2120461FF03BF800BFACC70200B7
:104BC00054C70200F0B50200F034002000ED00E010
:104BD00008B5024B1B689847002008BDC01600208E
:104BE000034B1860034A937843F0020393707047B5
:104BF000C0160020D003002008B504481EF012FEA5
:104C0000404080F311884FF0020002DFDCC7020051
:104C100008B5064921F00701C1F1005202F58032C2
:104C20000348FDF741FD002008BD00BFEB5F0020F9
:104C3000C41600200123044AC2F840354FF08042D8
:104C4000C2F878350020704700E0014030B108B567
:104C5000034B800143F00103984708BD704700BF34
:104C600000B5020019F07EBC08B5044825F06AFDC5
:104C700008B1002008BD6FF01200FBE764B002002D
:104C8000F0B58BB004460D4616460378032B38D892
:104C9000DFE803F002212B311D4B93E8030007905E
:104CA000ADF82010090C8DF8221063792279E17893
:104CB000A07867780DF11C0CCDF814C00497039010
:104CC000029101920093A379124A314628461EF0C0
:104CD000A1F90BB0F0BD104B93E803000790ADF8BD
:104CE0002010090C8DF82210DFE70C4A07AB07CA29
:104CF00003C31A80D9E70A4A07AB07CA03C31A805D
:104D0000D3E7084A0A2107A81EF084F9CDE700BFBF
:104D1000F4B602000CB70200FCB6020030B7020085
:104D20003CB7020004B70200402928BF40210023FD
:104D30008B421CD230B410F803C04FEA1C1C5A003E
:104D40000D4D15F80CC00D4C04F813C010F803C03D
:104D50000CF00F0C013215F80C50A55401338B42A6
:104D6000E9D30648002200F8132030BC70470348FE
:104D7000002200F81320704720C80200F01600201F
:104D800010B5034C1E222146FFF77AFF204610BDC6
:104D9000D0160020884202D98B18834204D9884259
:104DA00005D283188B4202D8531E194411E010B566
:104DB000094C40F26A22214608481EF040FF40F2AA
:104DC0006A2120461EF034FF11F8013900F8013B3A
:104DD000013A002AF8D170473CC80200F0B5020041
:104DE00008B50B490B4A01F120001FF04AFC40B105
:104DF00020220949064826F014F80028F1D00020A6
:104E000004E0452105481FF05AFA1F2008BD00BFE5
:104E10007417002028C90200FCC8020070C80200F4
:104E200070B5FFF7DDFF06464FF0FF324FF0FF335E
:104E3000012000F0B7FB054600F10C0402212046DA
:104E400017F076FB3E230370422343700121204676
:104E500017F06EFB082303704121204617F068FB12
:104E600004460670AEB140220021013026F07CF8E5
:104E70000E4BBFF35B8F53E8001F21F0010143E8A5
:104E80000012002AF7D1BFF35B8F284601F0F6FF2E
:104E900070BD074E202231460130FFF77BFF2022F4
:104EA000B11804F12100FFF775FFE1E7D4170020E6
:104EB0009417002070B52D492D4820F045FB021EA7
:104EC00044DBBFF35B8F2B4B1B68BFF35B8F13F08F
:104ED000040F41D028492648244B02461FF021FCEC
:104EE00006464FF0FF324FF0FF33012000F05AFB2F
:104EF000044600F10C050221284617F019FB3E2359
:104F00000370222343700121284617F011FB092367
:104F100003702121284617F00BFBFEB91F2300F870
:104F2000013B2022FF2126F01FF8124BBFF35B8FBD
:104F300053E8001F21F0020143E80012002AF7D1D4
:104F4000BFF35B8F204601F099FF70BD45210B48F0
:104F50001FF0B5F90026C4E70949BCE7002300F8B3
:104F6000013B20220249FFF715FFDEE728C90200B6
:104F700094170020D4170020FCC80200A0C802002B
:104F80007417002010B5BFF35B8F104B1B68BFF385
:104F90005B8F13F0010F02D0FFF742FF10BDBFF38C
:104FA0005B8F0A4B1B68BFF35B8F13F0020F02D0BD
:104FB000FFF780FFF2E7064CDB22214605481EF092
:104FC0003EFEDB2120461EF033FE00BFD41700203A
:104FD000C8C80200F0B50200BFF35B8F1C4B1B6812
:104FE000BFF35B8F13F0010F2CD170B505460C4653
:104FF000012929D8164BBFF35B8F53E8002F42F0ED
:10500000020143E800100028F7D1BFF35B8F12F0D4
:10501000020F1BD10F4E202229463046FFF7BAFE61
:105020002022A918B018FFF7B5FE012C14BF0022EA
:1050300001220221064820F06FFD074800F058FACF
:10504000002002E00C207047122070BD0C20FCE70D
:10505000D417002094170020E003002008B517F0B3
:1050600015F9BFF35B8F124B1B68BFF35B8F13F017
:10507000020F05D00C2142F2250020F072FD08BD80
:105080000B4BBFF35B8F53E8002F42F0010143E865
:1050900000100028F7D1BFF35B8F12F0010F01D091
:1050A0000C21E8E7034800F023FA0021E3E700BF02
:1050B000D4170020E003002010B50446037E7BBB1C
:1050C000C3681B8842F2260293421ED010D842F2D7
:1050D0000102934222D042F22502934220D10321C1
:1050E0000C3017F0CFF92046FFF7B8FF00201DE085
:1050F00042F25E02934213D103210C3017F0C2F941
:10510000204620F062FD002010E003210C3017F053
:10511000B9F9204620F049FD002007E020F0F2FC1C
:10512000034BD3F860315B692046984710BD00BF40
:1051300000000020F0B583B0BFF35B8F2A490968F7
:10514000BFF35B8F11F0010F47D0044616461D4692
:1051500030B301A91FF087F902462449204625F003
:1051600070FE074600283CD1BFF35B8F1E4B1B68C7
:10517000BFF35B8FC3F3C00413F0080F17D10722EE
:105180001B492846B047062817D91A49A1FB003108
:10519000401A01EB50018908154BD971234618E0DC
:1051A000452115481FF08BF86FF0010416E05721D8
:1051B00012481FF084F83C4610E0452110481FF0CB
:1051C0007EF80B4B00221A60C3F80320DA7105E069
:1051D0000133CAB29342FBDB00E00024204603B057
:1051E000F0BD6FF00104F9E7D400002000CA02000E
:1051F0000000002025499224D8C9020004CA0200F8
:1052000030CA02002DE9F04188B00E9CDCB19D79D6
:105210005E791F7993F803C093F802E093F8018058
:105220001B7807940693CDF81480CDF810E0CDF8E4
:105230000CC002970196009513460E4A1DF0EAFE37
:1052400008B0BDE8F0819C795D791E79DF7893F82C
:1052500002C093F801E01B780693CDF814E0CDF876
:1052600010C003970296019500941346024A1DF060
:10527000D1FEE5E75CCA020080CA020010B5FEF765
:10528000ABFA044608B9204610BD02464521024843
:105290001FF015F8F7E700BFA4CA020070B58CB084
:1052A00004461D46BAB1164671B900230093334631
:1052B0002246242102A8FFF7A5FF109A294602A83A
:1052C000FEF71AF90CB070BD0A4604210BA8FDF7D1
:1052D000C3F80BABEAE70346044A242102A81DF0F9
:1052E00099FE0028E9DA6FF01500EBE7D0CA02005A
:1052F00000B583B0094BDA79C2EBC20200920022FA
:1053000011460748FFF7CAFF10B903B05DF804FB68
:105310000246452103481EF0D2FFF6E700000020B8
:1053200000CA0200D8CA020030B58DB00446AAB146
:10533000154661B9002300932B462246242102A87A
:10534000FFF760FF02A81FF05EF80DB030BD0A46FF
:1053500004210BA8FDF780F80BABECE70346054AE8
:10536000242102A81DF056FE0028EBDA6FF015008C
:10537000EBE700BFD0CA020000B583B0009313462C
:105380000A4601460248FFF789FF03B05DF804FBB7
:10539000F8CA020008B50A4601460248FFF7C4FFF2
:1053A00008BD00BFF8CA020000B583B000931346E1
:1053B0000A4601460248FFF771FF03B05DF804FB9F
:1053C000FCCA020008B50A4601460248FFF7ACFFD6
:1053D00008BD00BFFCCA020008B502481BF02CFB48
:1053E000002008BDF003002010B5BFF35B8F224BF7
:1053F0001B68BFF35B8F13F0010F3BD01F4BDB79B2
:1054000013B31E4BDB791BB902F000FA044628BB2C
:10541000BFF35B8F184B1B68BFF35B8F13F0040F58
:1054200021D0154BBFF35B8F53E8002F22F480315E
:1054300043E800100028F7D1BFF35B8F12F4803FE0
:1054400014D10024204610BD02F072F90446002851
:10545000D7D045210A481EF032FFF3E7452108481E
:105460001EF02DFFEEE701F059FDDAE7FFF7B4FF7C
:105470000024E7E70024E5E7D40000200000002036
:1054800000CB020000B583B0009313460A460146E4
:105490000248FFF703FF03B05DF804FB2CCB0200CA
:1054A00008B50A4601460248FFF73EFF08BD00BFA7
:1054B0002CCB020070B584B002AE00240294039499
:1054C000084B0293084D28461BF0BEFA00960A23AB
:1054D0004FF48F62054928461BF0CEFA204604B0EF
:1054E00070BD00BF44CB0200380C002040350020C6
:1054F00008B50146014825F0AEFA08BD380C002079
:1055000010B586468C460378012B18D0022B32D07A
:1055100003B110BD224C0FCCCCF80000CCF8041025
:10552000CCF80820CCF80C3023788CF81030BEF87A
:1055300002308CF80D301B0A8CF80E30E9E7184C5D
:105540000FCCCCF80000CCF80410CCF80820CCF834
:105550000C3023788CF81030DEF804308CF80D30E5
:10556000C3F307228CF80E201A0C8CF80F201B0EA8
:105570008CF81030CDE70068DEF80410DEF8082063
:10558000DEF80C30CCF80000CCF80410CCF8082081
:10559000CCF80C309EF810308CF81030B9E700BF12
:1055A00050CB020038B5052811D804462A21C14045
:1055B00011F0010F0BD00B4823F0ACFD054620B1D4
:1055C00000210C3016F03EFF2C76284638BD064CE4
:1055D0003D22214605481EF032FB3D2120461EF0AB
:1055E00027FB00BFA40B002064CB0200F0B5020033
:1055F00038B502460B460E490020BFF35B8F51E8D9
:10560000004F41E80005002DF9D1BFF35B8F25461F
:105610002CB90120FFF7C6FF0546284638BD0123F7
:1056200023760146208204F10C0016F00BFFF4E70C
:105630004001002010B50F280DD913280DD11448B2
:1056400023F068FD044698B100210C3016F0FAFEF4
:10565000012323760CE00E2805D259B90120FFF76B
:10566000A1FF044604E010461946FFF7C1FF0446B7
:10567000204610BD074823F04DFD04460028F7D012
:1056800000210C3016F0DEFE01232376F0E700BF88
:10569000D80B0020080B0020002303B17047054AF7
:1056A00032F8132022B940F47042024921F8132045
:1056B0000133F2E7D817002040F4704000230BB10B
:1056C00000207047064A32F81320824201D001338D
:1056D000F5E7034A002122F813100120704700BFAC
:1056E000D8170020C2685178084B83F87010518891
:1056F000A3F87210117983F87110B2F80710A3F8AB
:105700007410B2F80520A3F876207047000000203E
:10571000C268034BD2F80100D2F8051003C37047EA
:10572000D8000020C268034BD2F80100D2F805105F
:1057300003C370477800002008B5C068013020F02E
:1057400033FB024BC3E9380108BD00BF0000002055
:10575000C3685A78014B83F820217047000000206D
:10576000032801D902487047024B53F820007047C4
:10577000CCCB020090D40200022807D1052901D920
:1057800003487047034B53F82100704700487047A7
:10579000CCCB020078D40200032801D9024870471C
:1057A000024B53F820007047CCCB020068D40200B3
:1057B00008B5C3681A78572101481EF080FD08BD5E
:1057C000D4CB020010B5864608464FF0000C634566
:1057D00018D902EBCC0112F83C40744507D1028A7B
:1057E0004B789A4206D34B689847002010BD0CF1C5
:1057F000010CECE77346452104481EF060FD6FF094
:105800001500F3E76FF05E00F0E700BF04CC020084
:10581000C3681B788BB9094BBFF35B8F1A68BFF362
:105820005B8F02F00902BFF35B8F53E8001F43E870
:1058300000200028F9D1BFF35B8F7047D40000200F
:1058400038B5C46804F1010C0A4D4134AE46DCF8A9
:105850000000DCF80410DCF80820DCF80C30AEE8BE
:105860000F000CF1100C7546A445EFD1014820F053
:10587000BDF938BD8000002008B5C368B3F8012029
:1058800091B209B1D97801B908BD0548A0F8042141
:10589000D9780A4600F5847025F056F8F4E700BF81
:1058A0000000002008B5C268084BB3F8043103B10A
:1058B00008BDB2F801300548A0F8043191880A46C5
:1058C00000F5847025F040F8F2E700BF00000020EA
:1058D000012801D00020704708B50522074B93F836
:1058E0006F0003F0F7FA00B108BD04220449034B2E
:1058F00093F86F0003F0EEFAF6E700BF0000002017
:1059000000C8020010B502F043F91030BFF35B8FFE
:1059100050E8003F23F0800340E80032002AF7D12E
:10592000BFF35B8F00210120FFF7D2FF044640B197
:105930003C230373002103F01DF8204602F0E8FF2A
:1059400010BD452101481EF0BAFCF9E72CCC02003D
:10595000F8B505460E4603F079FA08B30446837895
:10596000012B17D000271321204603F049F92046C8
:1059700002F0CEFFA7B1384607F042FF3146284675
:1059800022F018FC144B1A6892B152F80C49A4B1D9
:105990000C3C12E0D0F8C0700023C0F8C030E2E741
:1059A0003146284607F088FE07460028E3D1E5E7A0
:1059B000144602E0234622461C465AB1936813B1AE
:1059C000314628469847002CF4D0E368002BF2D0EB
:1059D0000C3BF0E7F8BD00BF6818002070B5C46844
:1059E000B4F80160237803B170BD0F21304603F095
:1059F00075F8054658B1E3780373002102F0BAFF49
:105A0000AB78012B09D0284602F082FFECE7324642
:105A1000452104481EF053FCE6E7284602F078FFD3
:105A2000E2E700BF54CC020010B5C368B3F80140F0
:105A30000121204603F052F810B102F069FF10BDB9
:105A40002246452101481EF03AFCF8E780CC0200CE
:105A500010B5C3681C880121204603F03FF810B13F
:105A600002F056FF10BD2246452102481EF027FCD9
:105A7000F8E700BF80CC020038B5C468B4F8015024
:105A80000121284603F02AF8D8B1034622783AB912
:105A9000D4F80310D4F80720C0F8B510C0F8B92026
:105AA0001A1DBFF35B8F52E8000F40F4805042E8AC
:105AB00000010029F7D1BFF35B8F184602F028FFE1
:105AC00038BD2A46452102481EF0F9FBF8E700BF21
:105AD00080CC02002DE9F04182B0D0F80C8098F81B
